:10000000DAC6000009C7000007C7000005C70000E6
:1000100003C7000001C70000FFC60000FDC60000C6
:10002000FBC60000F9C60000F7C60000F5C60000D8
:10003000F3C600000C94CE2AEFC60000EDC6000007
:10004000EBC600000C94A02AE7C60000E5C600003D
:10005000E3C60000E1C60000DFC600000C940C29D6
:10006000DBC600000C94E0290C94B629D5C600002C
:10007000D3C60000D1C60000CFC60000CDC6000028
:100080000C94722AC9C60000C7C60000C5C600008D
:100090000C9480290C945629BFC60000BDC60000F0
:1000A000BBC60000B9C600000C94442AB5C60000C7
:1000B000B3C60000B1C60000AFC600000C94162AFB
:1000C000ABC60000A9C60000A7C60000A5C6000078
:1000D000A3C60000A1C600009FC600009DC6000088
:1000E0009BC6000000000000003E5B4F5B3E3E6B85
:1000F0004F6B3E1C3E7C3E1C183C7E3C181C577DC2
:10010000571C1C5E7F5E1C00183C1800FFE7C3E70D
:10011000FF0018241800FFE7DBE7FF30483A060E1F
:100120002629792926407F050507407F05253F5A66
:100130003CE73C5A7F3E1C1C08081C1C3E7F1422D6
:100140007F22145F5F005F5F06097F017F00668981
:10015000956A606060606094A2FFA29408047E04C7
:100160000810207E201008082A1C08081C2A0808ED
:100170001E101010100C1E0C1E0C30383E383006AD
:100180000E3E0E06000000000000005F00000007A9
:10019000000700147F147F14242A7F2A12231308D7
:1001A000646236495620500008070300001C2241B3
:1001B000000041221C002A1C7F1C2A08083E080857
:1001C0000080703000080808080800006060002007
:1001D000100804023E5149453E00427F40007249EA
:1001E0004949462141494D331814127F102745458E
:1001F00045393C4A494931412111090736494949A4
:1002000036464949291E0000140000004034000011
:10021000000814224114141414140041221408027A
:10022000015909063E415D594E7C1211127C7F49ED
:100230004949363E414141227F4141413E7F494942
:1002400049417F090909013E414151737F0808086E
:100250007F00417F41002040413F017F081422413F
:100260007F404040407F021C027F7F0408107F3E99
:100270004141413E7F090909063E4151215E7F0906
:10028000192946264949493203017F01033F40406D
:10029000403F1F2040201F3F4038403F6314081458
:1002A0006303047804036159494D43007F41414190
:1002B0000204081020004141417F04020102044071
:1002C00040404040000307080020545478407F28F5
:1002D0004444383844444428384444287F385454EB
:1002E000541800087E090218A4A49C787F0804040E
:1002F0007800447D40002040403D007F10284400AD
:1003000000417F40007C047804787C08040478383D
:1003100044444438FC1824241818242418FC7C086D
:10032000040408485454542404043F44243C4040EA
:10033000207C1C2040201C3C4030403C442810289D
:10034000444C9090907C4464544C440008364100E6
:100350000000770000004136080002010204023C60
:100360002623263C1EA1A161123A4040207A38542F
:1003700054555921555579412254547842215554A8
:10038000784020545579400C1E52721239555555FB
:1003900059395454545939555454580000457C41E6
:1003A0000002457D420001457C407D1211127DF026
:1003B000282528F07C545545002054547C547C0A50
:1003C000097F4932494949323A4444443A324A4819
:1003D00048303A4141217A3A42402078009DA0A01D
:1003E0007D3D4242423D3D4040403D3C24FF24246F
:1003F000487E4943662B2FFC2F2BFF0929F620C08E
:10040000887E090320545479410000447D413048DE
:10041000484A32384040227A007A0A0A727D0D1921
:10042000317D2629292F28262929292630484D4083
:1004300020380808080808080808382F10C8ACBA7F
:100440002F102834FA00007B000008142A142222FE
:10045000142A14085500550055AA55AA55AAFF5547
:10046000FF55FF000000FF00101010FF00141414CF
:10047000FF001010FF00FF1010F010F0141414FC17
:10048000001414F700FF0000FF00FF1414F404FC34
:10049000141417101F10101F101F1414141F001015
:1004A0001010F0000000001F101010101F1010108E
:1004B00010F010000000FF1010101010101010109D
:1004C000FF10000000FF140000FF00FF00001F10DD
:1004D000170000FC04F414141710171414F404F497
:1004E0000000FF00F714141414141414F700F71488
:1004F0001414171410101F101F141414F4141010D7
:10050000F010F000001F101F0000001F140000007A
:10051000FC140000F010F01010FF10FF141414FF72
:10052000141010101F00000000F010FFFFFFFFFF6D
:10053000F0F0F0F0F0FFFFFF0000000000FFFF0F01
:100540000F0F0F0F3844443844FC4A4A4A347E02A5
:10055000020606027E027E02635549416338444426
:100560003C04407E201E2006027E020299A5E7A5DB
:10057000991C2A492A1C4C7201724C304A4D4D304C
:100580003048784830BC625A463D3E494949007E71
:100590000101017E2A2A2A2A2A44445F4444405108
:1005A0004A444040444A51400000FF0103E080FFBC
:1005B000000008086B6B083612362436060F090F48
:1005C00006000018180000001010003040FF010164
:1005D000001F01011E00191D1712003C3C3C3C008D
:1005E0000000000011007F96290001007F9628007E
:1005F0003A0155C0021010C10141C50400228040DB
:10060000360168B00100B102B011B40102B60302B4
:10061000023BB701C63A0155F704A9512C82C0022A
:100620000D0DC1024300C20100C50400480048B4DA
:100630000100B60302023BE00F0F211C0B0E08491C
:100640009838091103141000E10F0F2F2B0C0E0620
:10065000477637071104231E00B00100B3040200DF
:100660000000B40100D003074218D103000710D2E4
:10067000020102D3020102D4020102C005123B00B2
:100680000211C103101088C50103C60102C80C0085
:100690003236450616377577540C00CC0100F60348
:1006A000010100CF03008130ED0464031281E803EF
:1006B000851078CB05392C003402F70120EA0200BE
:1006C00000B00100B102001BB40100C00121C10152
:1006D00011C5023F3CC701B5360148F201002601B1
:1006E00001E00F0F26240B0E0954A8460C17090F22
:1006F0000700E10F00191B0410072A4739030606FB
:1007000030380F360100B80101C0010EB00100C140
:100710000410100202C006003500000102C50104E9
:10072000D2020104CA0100EA0180B903FF83577FA6
:10073000967F96B60125C0065050013C1E08B407AE
:100740000240002A2A0D787F01F20B1616030808D2
:10075000080810041616FD03110235B2050C0C0032
:100760003333B70135BB012BC00104C20201FFC303
:100770000111C40120C6010FD002A4A1E00ED000D7
:10078000050E150D3743470915121619E10ED00055
:10079000050D0C062D44400E1C1816193A01557F04
:1007A0000AB00103E2013FC00122E20100B00100F2
:1007B000C0010AB0010000000000000000000000BD
:1007C000000000000000FFFF0F00000400620800AE
:1007D00008080003000C01030B5A02030609030377
:1007E000171004030023050300170603096307031A
:1007F000090C08030C100903322210001600110026
:10080000010112000000130001000001300301018A
:1008100037020301000D800200610201B0C1FFFF39
:100820003200010000010200000103003010090045
:1008300001000C000000900000800F00000010027A
:1008400000001102EF001202000013028F010005E8
:1008500000000105000002055F000104010004041E
:100860000000FFFF320007000001FFFF320000021E
:100870000000010200000000000000000000000075
:10088000000000000100A4000100FFFF0A0060005A
:100890000027080008083000140231001537320024
:1008A00004063300160E3400112235000015360000
:1008B0000785370007143800031439002000900022
:1008C00015001000100411003702290046002A000C
:1008D0004600070000001200890113000011FFFF0D
:1008E00096001200B901010000010200000203009D
:1008F0003010090001000A0000000D0000000E0089
:100900003000610001006A000000800000008100EA
:10091000000082005F009200000193000107FFFFCA
:10092000500007000001E500F0780100000102001E
:100930000002030030100400000005000000080061
:100940000702090000000A0000000C0000000D0072
:1009500000000F000000100000001100070012004E
:1009600000001300000007000100FFFFC800100096
:10097000901611002702FFFF320012000D00FFFF4A
:1009800032001300001229000A002B000D00FFFFA7
:100990003200200000002100000030000000310083
:1009A000040432000300350005043600080837004F
:1009B000070438000303390007073C0004053D0025
:1009C000080860000027610001006A000000800044
:1009D000000081000000820000008300000084000D
:1009E0000000850000009000100092000000070049
:1009F0003301E50000800000010001000001020059
:100A00000007030030100400000008000202090083
:100A100000000A0000000C0000000D0000000F00A4
:100A20000000100000001100070012000000130079
:100A30000000FFFF32001000B01711000700FFFF99
:100A40000A0012003A01FFFF0A001300001A2900F1
:100A50000C00FFFF0A0030000000310005053200E5
:100A6000040035000600360007073700050138008E
:100A70000200390007073C0004073D00070860003A
:100A800000A7610001006A000000210000002000B2
:100A90000000800000008100000082000000830050
:100AA000000084000000850000009000100092000B
:100AB00000009300030095001001970000009800CB
:100AC000000007007301FFFF3200FF000100F30088
:100AD00008000000010001000001020000070300FF
:100AE000301008000203090000001000000011008F
:100AF00007001200000013000000FFFF320010008A
:100B0000B014FFFF0A0011000700FFFF0A001200E7
:100B10008E001300000C29001500FFFF0A003000B2
:100B200000003100070132000000350003023600EA
:100B300002043700000038000702390000003C00C2
:100B400003023D000304600000A761000100900063
:100B5000290007003301FFFF3200150030009A0022
:100B600010001100200010002834120002001300B1
:100B70003810FFFF280012001200FFFF28001000AD
:100B8000203413004530FFFF4600300000003100E4
:100B9000020432000703330004033400040035006C
:100BA0000104360007073700050338001006390036
:100BB00010060100000102000003030030100800CD
:100BC00008080A000800600000276100010090008A
:100BD0003E019200000193000001A0000030A3003C
:100BE0001000070001000700210007002300070094
:100BF00033000700330111001A00120021311300E5
:100C00006C001400494210000008FFFF0A001100A8
:100C10001A01FFFF0A0011001A03FFFF0A0011006A
:100C20001A07FFFF0A0011001A0FFFFF0A00110048
:100C30003A0FFFFF1E00010028010200000103001F
:100C4000301007001210080003030B0000110C0005
:100C500000000F0001181500200050000101510094
:100C60000306520008045300000054000506550016
:100C700006045600030357000303580010005900F0
:100C8000001007001200FFFF2800070013000700F4
:100C9000170000000A0B02090C0D0E0807030401DF
:100CA0000000000000000000000000000000000044
:100CB0000000000000000000000000000000121111
:100CC0001000000000000000000000000000000014
:100CD00000000000000000000000210024002700A8
:100CE0002A002D003000330001010000040107013B
:100CF0000A01000020002300260029002C002F00FC
:100D00003200000100000301060109010000220079
:100D1000250028002B002E003100340002010000C5
:100D2000050108010B010505050507050808080868
:100D3000020202020A0A0808040404040101010173
:100D4000010101010303030303030303040707076E
:100D50000C0C0C0C0C0C0C0C020202020606060613
:100D6000060606060B0B0B0B0B0B0B0B01021020E0
:100D700020080810204010204080020102010804D1
:100D80000201010204081020408080402010080465
:100D900002018004020180402010080402010804BE
:100DA0000201010204081020408001020408102002
:100DB0004080F72AD73C11241FBECFEFD1E2DEBF1F
:100DC000CDBF00E00CBF15E0A0E0B2E0E6E8F5E83A
:100DD00000E00BBF02C007900D92A635B107D9F70E
:100DE00029E0A6E5B5E001C01D92A532B207E1F702
:100DF00016E0CAEDD6E000E006C021970109802F79
:100E0000FE010E948640C93DD10780E00807A9F78E
:100E10000E94E02D0C94B242F3C8FC0182819381C0
:100E200020813181A1E0821793071CF43383228350
:100E3000A0E0B0E0AA0FBB1FAE0FBF1F8D939C9325
:100E40004481558182E0282F30E021503048220F24
:100E5000331FDF01A20FB31F6D917C912E5F3F4FB7
:100E6000DF01A20FB31F461757072CF46D937C9335
:100E7000813049F480E090E0880F991FE80FF91F56
:100E800051834083089581E0DECF089581508231FF
:100E900008F05AC0E82FF0E08827EE5AF84F8F4F3D
:100EA0000C9486407207760764076A076E07A407EA
:100EB00079077F07830789078D07910797079B07A6
:100EC000A4079F07A507A907809180008F778093CB
:100ED00080000895809180008F7DF9CF80918000FF
:100EE000877FF5CF84B58F7784BD089584B58F7DD6
:100EF000FBCF8091B0008F778093B00008958091F0
:100F0000B0008F7DF9CF809190008F778093900013
:100F10000895809190008F7DF9CF80919000877F18
:100F2000F5CF8091A0008F778093A00008958091E5
:100F3000A0008F7DF9CF8091A000877FF5CF8091B1
:100F400020018F77809320010895809120018F7D6B
:100F5000F9CF80912001877FF5CF1F93CF93DF9347
:100F6000282F30E0F901EE56F34F8491F901E4594E
:100F7000F24FD491F901EA5DF24FC491CC23A1F074
:100F8000162F811183DFEC2FF0E0EE0FFF1FE45FDF
:100F9000F24FA591B4918FB7F894EC91111108C05C
:100FA000D095DE23DC938FBFDF91CF911F91089501
:100FB000DE2BF8CFCF93DF9390E0FC01E459F24FA2
:100FC00024918A5D924FFC0184918823D1F090E0B6
:100FD000880F991FFC01E852F34FA591B491FC01D1
:100FE000E45FF24FC591D49161110EC09FB7F894A0
:100FF0008C91E22FE0958E238C932881E223E88365
:101000009FBFDF91CF9108958FB7F894EC91E22BB9
:10101000EC938FBFF6CF1F93CF93DF93182FEB0185
:1010200061E0C8DF209731F460E0812FDF91CF913C
:101030001F9193CFCF3FD10511F461E0F6CFE12F9F
:10104000F0E0EE56F34FE491E150E23108F0B3C026
:10105000F0E08827E15DF74F8F4F0C948640410800
:1010600049084E0858086208DB086C0874087C08B8
:10107000860890089A08A908B308DB08BD08C708C5
:10108000D10884B5806884BDC7BDDF91CF911F9121
:10109000089584B5806284BDC8BDF7CF809180007B
:1010A000806880938000D0938900C0938800EDCF42
:1010B00080918000806280938000D0938B00C093E9
:1010C0008A00E3CF80918000886080938000D09375
:1010D0008D00C0938C00D9CF8091B0008068809340
:1010E000B000C093B300D1CF8091B00080628093F4
:1010F000B000C093B400C9CF809190008068809305
:101100009000D0939900C0939800BFCF8091900039
:10111000806280939000D0939B00C0939A00B5CFDB
:1011200080919000886080939000D0939D00C09340
:101130009C00ABCF8091A00080688093A00080913C
:10114000A0008F7B8093A000D093A900C093A8003B
:101150009CCF8091A00080628093A000D093AB00D0
:10116000C093AA0092CF8091A00088608093A000D5
:10117000D093AD00C093AC0088CF809120018068EF
:1011800080932001D0932901C09328017ECF8091C4
:101190002001806280932001D0932B01C0932A010B
:1011A00074CF80912001886080932001D0932D011D
:1011B000C0932C016ACFC038D1050CF03ECF34CF9C
:1011C000863308F0865320917B00982F9870277FF4
:1011D000922B90937B008770806480937C00809139
:1011E0007A00806480937A0080917A0086FDFCCF3B
:1011F000809178009091790008953FB7F89480919C
:101200007F0590918005A0918105B091820526B55A
:10121000A89B05C02F3F19F00196A11DB11D3FBF2E
:10122000BA2FA92F982F8827BC01CD01620F711DFD
:10123000811D911D42E0660F771F881F991F4A95F7
:10124000D1F708958F929F92AF92BF92CF92DF9283
:10125000EF92FF926B017C01D0DF4B015C01C11466
:10126000D104E104F104B1F0C8DF681979098A09F1
:101270009B09683E73408105910588F321E0C21AFD
:10128000D108E108F10888EE880E83E0981EA11CC1
:10129000B11CE5CFFF90EF90DF90CF90BF90AF9063
:1012A0009F908F9008952FB7F89460917B0570916F
:1012B0007C0580917D0590917E052FBF089508954E
:1012C000AF92BF92CF92DF92EF92FF920F931F9354
:1012D000CF93DF936C017B018B01040F151FEB0192
:1012E0005E01AE18BF08C017D10759F06991D60149
:1012F000ED91FC910190F081E02DC6011995892BAB
:1013000079F7C501DF91CF911F910F91FF90EF9079
:10131000DF90CF90BF90AF900895FC01538D448D26
:10132000252F30E0842F90E0821B930B541710F090
:10133000CF96089501970895FC01918D828D98179D
:1013400061F0A28DAE0FBF2FB11D5D968C91928D75
:101350009F5F9F73928F90E008958FEF9FEF0895A6
:10136000FC01918D828D981731F0828DE80FF11D6F
:10137000858D90E008958FEF9FEF0895FC01918D8A
:10138000228D892F90E0805C9F4F821B91098F7383
:101390009927089585E895E0F1DF21E0892B09F48C
:1013A00020E0822F089582E296E0E8DF21E0892B99
:1013B00009F420E0822F0895FC01A48DA80FB92F15
:1013C000B11DA35ABF4F2C91848D90E001968F736D
:1013D0009927848FA689B7892C93A089B1898C918C
:1013E000837080648C93938D848D981306C00288DB
:1013F000F389E02D80818F7D80830895EF92FF92A5
:101400000F931F93CF93DF93EC0181E0888F9B8D27
:101410008C8D98131AC0E889F989808185FF15C0E1
:101420009FB7F894EE89FF896083E889F989808104
:101430008370806480839FBF81E090E0DF91CF91D3
:101440001F910F91FF90EF900895F62E0B8D10E0F5
:101450000F5F1F4F0F731127E02E8C8D8E110BC065
:101460000FB607FCFACFE889F989808185FFF5CFAF
:10147000CE01A2DFF2CFEB8DEC0FFD2FF11DE35A71
:10148000FF4FF0829FB7F8940B8FEA89FB89808128
:101490008062D0CFCF93DF93EC01888D8823B1F0A9
:1014A000AA89BB89E889F9898C9185FD03C080816F
:1014B00086FD0CC00FB607FCF7CF8C9185FFF2CFED
:1014C000808185FFEDCFCE0177DFEACFDF91CF912D
:1014D000089580E090E0892B21F065DF81110E9462
:1014E000000080E090E0892B21F054DF81110E9400
:1014F000000080E090E0892B49F080E090E0892BAB
:1015000029F00E94000081110E94000080E090E01C
:10151000892B49F080E090E0892B29F00E9400009F
:1015200081110C9400000895CF93DF93EC0160E0EB
:10153000898113DD60E08A8110DD6FEF70E08881C2
:101540006ADD1986DF91CF910895CF93DF93EC0187
:1015500060E0898102DD61E08A81FFDC6B8170E0FF
:10156000888159DD81E08987DF91CF910895CF93FC
:10157000DF93EC0161E08981F0DC60E08A81EDDCE1
:101580006B8170E0888147DD81E08987DF91CF91B1
:1015900008958B988A982091020127782093020160
:1015A000A5982EB1277C2EB970910201292F30E029
:1015B000F901A5E0EE0FFF1FAA95E1F7E076E72B12
:1015C000E09302017EB1F901EE0FFF1FEE0FFF1F46
:1015D000E073E72BEEB974B3F901EE0FFF1FE07271
:1015E000E72BE4BB7EB1F901F595E795F595E79515
:1015F000E870E72BEEB970910201E3E0359527958D
:10160000EA95E1F72871272B209302018998899A9E
:1016100020910201277820930201A5982EB1277C02
:101620002EB9709102019C01F5E0880F991FFA957F
:10163000E1F78076872B809302017EB1C901880F84
:10164000991F880F991F8073872B8EB974B3C901B6
:10165000880F991F8072872B84BB7EB1C901959535
:101660008795959587958870872B8EB98091020113
:10167000F3E035952795FA95E1F72871282B20930B
:1016800002018998899A8A9AFA01615008F43EC049
:10169000819190910201977890930201A5989EB153
:1016A000977C9EB94091020190E09C0155E0220F89
:1016B000331F5A95E1F72076242B209302014EB177
:1016C0009C01220F331F220F331F2073242B2EB9AE
:1016D00044B39C01220F331F2072242B24BB4EB134
:1016E0009C0135952795359527952870242B2EB983
:1016F0002091020133E0959587953A95E1F788713D
:10170000822B809302018998899ABFCF8B9A089582
:10171000DF92EF92FF920F931F93CF93DF93CDB79A
:10172000DEB768970FB6F894DEBF0FBECDBF7C0161
:101730008B01F70184913196D490F2E0EF0EF11C09
:101740008F3779F0DE01119630E020E0AD012D15E4
:1017500020F5F701E20FF31FE491ED932F5F3F4F68
:10176000F6CF6D2D70E090E080E06CDDD12CED2D9A
:10177000F0E032960E1B1F0B10161106D4F268967D
:101780000FB6F894DEBF0FBECDBFDF91CF911F9192
:101790000F91FF90EF90DF900895ED0CF11C6D2DEF
:1017A00090E0F7DEE4CF8B988A98E2E0F1E02081C8
:1017B00027782083A5982EB1277C2EB9A081292FC8
:1017C00030E0A901B5E0440F551FBA95E1F7407626
:1017D0004A2B4083AEB1A901440F551F440F551F3A
:1017E00040734A2B4EB9A4B3A901440F551F407250
:1017F0004A2B44BBAEB1A9015595479555954795E0
:1018000048704A2B4EB9408153E0359527955A953B
:10181000E1F72871242B20838998899A20812778E1
:101820002083A5982EB1277C2EB940819C01A5E08C
:10183000880F991FAA95E1F78076842B80834EB19B
:10184000C901880F991F880F991F8073842B8EB947
:1018500044B3C901880F991F8072842B84BB4EB199
:10186000C90195958795959587958870842B8EB934
:101870008081B3E035952795BA95E1F72871282B3B
:1018800020838998899A8A9A808187788083A5980D
:101890008EB1877C8EB94081872F90E09C0155E006
:1018A000220F331F5A95E1F72076242B20834EB167
:1018B0009C01220F331F220F331F2073242B2EB9BC
:1018C00044B39C01220F331F2072242B24BB4EB142
:1018D0009C0135952795359527952870242B2EB991
:1018E0002081A3E095958795AA95E1F78871822BD1
:1018F00080838998899A808187788083A5988EB122
:10190000877C8EB94081CB019B01B5E0220F331F4C
:10191000BA95E1F72076242B20834EB19B01220F4C
:10192000331F220F331F2073242B2EB944B39B0186
:10193000220F331F2072242B24BB4EB19C013595FE
:101940002795359527952870242B2EB92081A3E063
:1019500095958795AA95E1F78871822B8083899860
:10196000899A8B9A089581E080938305E1E0F1E004
:101970008081886780839D9A8DB188638DB9809AB4
:10198000819A829A839A849A8B9A889A899A8C9A55
:1019900062E370E080E090E055DC8C9864E670E0F3
:1019A00080E090E04FDC8C9A64E670E080E090E0AC
:1019B00049DC70E060E080EB90E0F5CE0F931F9380
:1019C000CF93DF93EC01162F80918305811101C025
:1019D000CADF8B988A9880910201877880930201F0
:1019E000A5988EB1877C8EB9809102018093020107
:1019F0008EB18EB984B384BB8EB18EB98091020151
:101A0000809302018998899A809102018778809356
:101A10000201A5988EB1877C8EB920910201CE017A
:101A2000A5E0880F991FAA95E1F78076822B809315
:101A300002012EB1CE01880F991F880F991F807364
:101A4000822B8EB924B3CE01880F991F8072822B0E
:101A500084BB2EB1CE019595879595958795887015
:101A6000822B8EB98091020143E0D595C7954A95A6
:101A7000E1F7C871C82BC09302018998899A8A9AA4
:101A8000809101018778809301019D988DB1877CB9
:101A90008DB961E070E080E090E0D4DB889A8898AE
:101AA0008898889860910001ECB1C2B32CB1009184
:101AB0000001889A889A88988898889840910001AF
:101AC0005CB1A2B39CB1B0910001889A115030F77B
:101AD000889A8B9A809101018867809301019D9A71
:101AE0008DB188638DB984E0289F90011124207204
:101AF000332788E0089F80011124007C1127202BC8
:101B0000D0E0D595C795C071DD272C2BF0E0F59579
:101B1000E795F595E795EC70FF272E2B70E0E5E053
:101B200075956795EA95E1F763707727262B64E052
:101B3000969FC0011124807298E0B99FB0011124D2
:101B4000607C862BA695A0718A2B569556955C7065
:101B5000852B50E0F5E055954795FA95E1F74370F0
:101B6000842B922FDF91CF911F910F910895FF92B7
:101B70000F931F93CF93DF938C0160E01FDFEC0185
:101B800061E0C8011BDFF82E62E0C80117DFAE017B
:101B900070E060E0742F66275527442700E030E0AE
:101BA00020E0402B5F29622B732B292F30E0C901E5
:101BB000B0E0A0E08A019B01082B192B2A2B3B2BBC
:101BC000C901B801DF91CF911F910F91FF90089546
:101BD0000F931F93CF93DF938C0160E0EFDEEC0156
:101BE00061E0C801EBDE8C01BE0190E080E0CB013A
:101BF0007727662730E020E0602B712B822B932B18
:101C0000DF91CF911F910F9108950F931F93CF9361
:101C1000DF93EC018B01FE0185919491FE013296D8
:101C20002496659174918F3F980769F490E080E065
:101C300009DB04501109101611066CF3DF91CF91E6
:101C40001F910F910895AFDDF4CFFC01262F358D44
:101C5000868D82958170982F9627692F70E072A3E8
:101C600061A330FF0BC0821306C080E290E050E019
:101C700040E060E08ECC81E290E0F9CF878D90A1CA
:101C8000833927E7920741F058F4843521E0920721
:101C900091F080329445B9F4626081E094E012C022
:101CA000863223E99207C1F3893025EB9207A1F32D
:101CB0008532924941F4660F771F660F771F636183
:101CC00087E090E070CD81E690E0FCCF8F929F920C
:101CD000AF92BF92CF92DF92EF92FF920F931F933A
:101CE000CF93DF9300D01F92CDB7DEB77C014B01BD
:101CF0005A016901FC01878D90A18732F3E99F07A2
:101D000009F03EC0F7018689823089F5F0E2AF0E16
:101D1000B11C005E1F4FF701858D80FF48C085A56F
:101D200099828A82DB82CC82AE014F5F5F4F64E092
:101D300090E02FDCF70181A9B982AA821B830C8372
:101D4000AE014F5F5F4F64E090E023DC0F900F9097
:101D50000F900F90DF91CF911F910F91FF90EF9017
:101D6000DF90CF90BF90AF909F908F900895833079
:101D700091F620E2820E911C80E2C80ED11CCBCFDE
:101D80008632954141F6F701868980FFC4CFC801AC
:101D9000841B950B19F40F5F1F4FBDCF621773079C
:101DA00009F0B9CF6B01C80ED91E8A01B4CFB401B6
:101DB00087A190A5F8DCB501F70181A592A5F3DC18
:101DC000C814D90421F40A151B0509F4BFCFF70183
:101DD000858D85FF08C0868980FF1AC0102F0027D7
:101DE000A02AB12A8501B401F70185A596A5DBDCFF
:101DF000B501F70181A992A9D6DCB601F70187A543
:101E000090A9D1DCB801F70183A994A9CCDC9ECFBD
:101E1000DC2CCC248C289D286401E5CFAF92BF92A6
:101E2000CF92DF92EF92FF920F931F93CF93DF93A6
:101E3000EC0180916005882349F0C701880F991F44
:101E40008E739927E1ECEE22E82AF92A37FF05C0C4
:101E5000620F731F319521953109260F371F77FFC8
:101E600002C070E060E088859985281739070CF476
:101E7000C9016C01C61AD70A17FF05C0400F511FD0
:101E8000119501951109040F151F57FF02C050E06D
:101E900040E02A853B85021713070CF4980159018D
:101EA000A41AB50A8901015011099C012150310978
:101EB000CE010CDF8B988A985BA54CA5809102011E
:101EC000877880930201A5988EB1877C8EB9609146
:101ED0000201842F90E09C01F5E0220F331FFA9558
:101EE000E1F72076262B209302016EB19C01220F90
:101EF000331F220F331F2073262B2EB964B39C018E
:101F0000220F331F2072262B24BB6EB19C01359506
:101F10002795359527952870262B2EB920910201FB
:101F200003E0959587950A95E1F78871822B809358
:101F300002018998899A8091020187788093020131
:101F4000A5988EB1877C8EB960910201852F942F60
:101F50009C0145E0220F331F4A95E1F72076262B9E
:101F6000209302014EB19C01220F331F220F331F19
:101F70002073242B2EB944B39C01220F331F2072EF
:101F8000242B24BB4EB19C0135952795359527957B
:101F90002870242B2EB920910201E3E095958795B6
:101FA000EA95E1F78871822B809302018998899ADA
:101FB0008A9ACA14DB042CF09A2D8B2D5601C92E57
:101FC000D82E8F2D99279C0145E0220F331F4A956B
:101FD000E1F72076AC01440F551F440F551F342FF5
:101FE0003073AC01440F551F4072BC017595679565
:101FF00075956795562F5870F3E095958795FA95E6
:10200000E1F78871B701A5E0660F771FAA95E1F7A0
:10201000962F9076B701660F771F660F771F607354
:10202000F701EE0FFF1F7E2F7072D701B595A795B0
:10203000B595A795A870E3E0F594E794EA95E1F7E4
:10204000EE2DE871EE2E1C141D040CF043C0F501BA
:10205000B0910201B778B0930201A598BEB1B77CE8
:10206000BEB9B0910201B22BB0930201BEB1B32B45
:10207000BEB9B4B3B42BB4BBBEB1B52BBEB9B0912D
:102080000201B82BB09302018998899AB09102019C
:10209000B778B0930201A598BEB1B77CBEB9B09134
:1020A0000201B92BB0930201BEB1B62BBEB9B4B3D5
:1020B000B72BB4BBBEB1BA2BBEB9B0910201BE29D9
:1020C000B09302018998899A319711F6E1E0CE1A0E
:1020D000D108B9CF8B9A8D8D80FF08C08F8D98A1C4
:1020E0008632954189F48E8980FF0EC00A851B8552
:1020F00001501109288539852150310950E040E00F
:1021000070E060E0CE01E2DDDF91CF911F910F9191
:10211000FF90EF90DF90CF90BF90AF900895EF9237
:10212000FF920F931F93CF93DF937C01E90177FD1B
:1021300028C057FD26C0FC01808591856817790766
:1021400004F58285938548175907DCF48091600572
:10215000882341F0C901880F991F8E739927C17C8C
:10216000C82BD92B8A019B01C701B0DDBE01F70145
:1021700083A594A5DF91CF911F910F91FF90EF90D0
:1021800012CBDF91CF911F910F91FF90EF900895A7
:10219000EF92FF920F931F93CF93DF9300D000D065
:1021A00000D01F92CDB7DEB77C01862F8370F70178
:1021B000868B962F917060FFEBC026813781F701E7
:1021C00031872087992309F4E6C024813581F701FE
:1021D00033872287823009F4E3C0833009F4E2C0F8
:1021E000813009F4DBC088E48A87F701258D368DBC
:1021F00030FF03C08A8580588A8731FF04C08A85F2
:1022000090E489278A8733FF04C08A8598E089276C
:102210008A87F701878D90A120FFF4C08431F8E60A
:102220009F0709F0C1C09A85892F88728A871F820B
:10223000892F85958074282F2260892F90E09595AD
:10224000879580729927822B88878BE38987AE01D7
:10225000495F5F4F63E086EB90E09BD92AE230E074
:10226000F70130A727A38BE290E092A781A74CE269
:1022700050E054A743A736A725A730AB27A792ABBA
:1022800081AB94AB83ABAE01465F5F4F61E086E309
:1022900090E07FD98A8590E0F70194A383A3F701AA
:1022A000868980FF1CC0858D968D92FD18C087A100
:1022B00090A521A532A530A727A392A781A785A520
:1022C00096A521A932A936A725A792AB81AB87A5F0
:1022D00090A923A934A930AB27A794AB83ABF7010E
:1022E000028513850150110920853185215031095E
:1022F00050E040E070E060E0C701E8DCF701668193
:102300007781878D90A110E000E020E08732F3E92B
:102310009F0769F4F7012689225010E000E022307F
:1023200010F400E210E020E230E0201B310BF70156
:10233000458D40FF20C119820A837B836C831D82F7
:102340002E83AE014F5F5F4F66E083E390E021D9BB
:1023500019820A83AE014F5F5F4F62E087E390E02E
:1023600018D9F701858D80FF06C050E040E060E09D
:1023700083E190E00ED92A960FB6F894DEBF0FBE27
:10238000CDBFDF91CF911F910F91FF90EF900895F6
:102390002481358114CF2681378119CF88E224CF5B
:1023A00088E922CF88EF20CF833629E1920749F0D0
:1023B000813834E9930729F08131E5E19E0709F07E
:1023C0004DCF2A8527FF02C021602A872A8526FF54
:1023D00002C022602A878336F9E19F0721F48A85AB
:1023E0008F738A873BCF813824E9920719F48A8555
:1023F0008F72F7CF8131954109F030CF8A858F7E7A
:10240000806CEFCF2A85622F022E000C770B833968
:10241000F7E79F0761F008F041C08435E1E09E07CF
:1024200009F468C08032F4E59F0709F040C020E05D
:1024300032E0F70130A727A321E032E032A721A73D
:1024400022E032E034A723A720E132E036A725A717
:1024500021E132E030AB27A722E132E032AB21AB01
:1024600023E132E034AB23AB662770788632F3E9A0
:102470009F0709F47DC08032944509F479C080E05B
:102480009AE6682B792B80E094E08DD96A85F4E098
:102490006F9FB00111246627717054C0863223E902
:1024A000920729F2893035EB930709F4C0CF80E217
:1024B00090E0F70190A787A381E290E092A781A71F
:1024C00082E290E094A783A780E590E096A785A795
:1024D00081E590E090AB87A782E590E092AB81AB7D
:1024E00083E590E094AB83AB66277078776280E6F3
:1024F00090E0CBCF87E390E0F70196A785A786E32E
:1025000090E090AB87A789E390E092AB81AB88E342
:1025100090E094AB83AB80E290E090A787A381E248
:1025200090E092A781A782E290E094A783A7662714
:1025300072706862F4E02F9FC001112488279170A7
:10254000682B792B81E090E02ED98A85682F70E086
:1025500075956795759567956870772783FD7061A8
:102560006063F70174A363A383E090E01CD997CE66
:1025700080E095E386CF8339F7E79F07B9F1E0F470
:10258000803234E5930791F18338E7E79E0721F124
:1025900084359140E1F4600F711F6150710981E34E
:1025A00090E001D9B80182E390E0FDD870E060E0EE
:1025B00083E390E0F8D8DFCE863223E99207B1F0CA
:1025C000893035EB930791F08532924921F3F70179
:1025D00061A172A1626003C0F70161A172A181E6ED
:1025E00090E0E1D8B8018AE690E0E4CFF70161A17C
:1025F00072A1626081E094E0D6D8B80184E094E0F2
:10260000D9CFEF92FF920F931F93DC01ED91FC91D4
:1026100000A0F1A1E02D780101E010E019951F91D3
:102620000F91FF90EF900895EF92FF920F931F93F9
:10263000DC01ED91FC9100A0F1A1E02D7801890170
:1026400021E030E019951F910F91FF90EF900895D0
:10265000FC01848D882319F0858D91E089270895E8
:10266000FC018281938168177907A4F02681378164
:10267000820F931F681779076CF424813581421704
:10268000530744F080859185280F391F81E0421758
:1026900053070CF080E008950895FC016370668B89
:1026A0008481958126813781613039F0633029F04A
:1026B0009187808733872287089531872087938782
:1026C000828708952F923F924F925F926F927F92EE
:1026D0008F929F92AF92BF92CF92DF92EF92FF9232
:1026E0000F931F93CF93DF93CDB7DEB76A970FB6E3
:1026F000F894DEBF0FBECDBF9A8F898F7A8369832E
:102700004A01D22E18870F833701BC2CDC01599661
:102710002D913C915A972115310509F015C1189654
:102720008D919C911997681779070CF0D7C11A966B
:102730008D919C91481759070CF0D0C14C2C512C0D
:10274000B6E0CB9E600D711D11247C876B87161639
:1027500017060CF0C3C1EA2DF0E0FA87E98793E091
:10276000EE0FFF1F9A95E1F7F88BEF87CF01840FEB
:10277000951F181619060CF0B1C1A98DBA8D58967F
:102780008C91811104C0BFEABD1508F4D394A98DC2
:10279000BA8DED91FC9111970284F385E02DCD0166
:1027A0001995B5E0DB9EC0011124E981FA81FC8313
:1027B000EB83312C212C9C012C513F4F388F2F8BD8
:1027C0004A2D50E05E8B4D8BEF89F88DE20DF31DA5
:1027D00044919E828D82D12CC12C69817A81620DB7
:1027E000731D7A8B698B842F90E09C8B8B8BE98D8A
:1027F000FA8DA081B18140FF82C0F1E0BF126FC0AD
:10280000AF126DC01C96ED91FC912F813885A4010B
:102810004C0D5D1D69897A89898D9A8D1995EB8991
:10282000FC89F595E7954E2F5FEFC51AD50A6D81A6
:102830007E818D899E89680F791F7E836D8398E0E4
:10284000C916D10481F6AFEF2A1A3A0AEB81FC814E
:10285000E40DF51DFC83EB83F5E02F16310409F040
:10286000B3CF2F81388526153705B9F0A98DBA8DDC
:10287000ED91FC91B1E0BB1257C0AB1255C069811C
:102880007A816B5F7F4F0088F189E02D830128E01A
:1028900030E0A401898D9A8D1995A98DBA8DED919D
:1028A000FC9111970688F789E02DCD016A960FB645
:1028B000F894DEBF0FBECDBFDF91CF911F910F9176
:1028C000FF90EF90DF90CF90BF90AF909F908F9050
:1028D0007F906F905F904F903F902F9019941E962D
:1028E000ED91FC91EF80F88409851A8592014D8164
:1028F0005E816B817C81898D9A8D199590CF2F8116
:1029000038852615370509F48ACF31E0B31207C0A0
:10291000A31205C01C96ED91FC91930178CF1E96F1
:10292000ED91FC917301E0CF6B857C85641975098D
:102930000684F785E02D73010F8518899201A401A3
:10294000898D9A8D1995A9CFF90134969491329772
:1029500045915491D91AB7E0DB9E400D511D1124C9
:10296000F901259134913C8B2B8BFA012590349001
:10297000FA013296749031963491398B3296649084
:102980003196449041E04C1518F04A1508F07FC08C
:10299000662D062C000C770B7C836B83842D042C16
:1029A000000C990B9E838D83A98DBA8DED91FC91BE
:1029B00011970284F385E02DCD011995512CD12C6E
:1029C000C12CEA2DF0E0FA87E9872B2D30E03C8717
:1029D0002B87A401440D511D47FC5A95588F4F8BEE
:1029E00069817A81660D711D67FC7A957E876D8796
:1029F0007989C71608F051CF2C2D30E04D815E81CA
:102A0000420F531FA985BA854A9FC0014B9F900D65
:102A10005A9F900D1124FC01E80DF91DF88BEF87EA
:102A2000852D612C4F89588D420F531F5E8B4D8B26
:102A3000671408F050C044244394480E877041F452
:102A4000C1010196EB89FC89E20DF31DD4901C01B4
:102A5000D7FE19C0A98DBA8DED91FC91662D70E05D
:102A6000B1E0BB1219C0AB1217C02D853E85620FB5
:102A7000731F0484F585E02D2F8138854D895E898B
:102A8000898D9A8D1995DD0C6394842DD1CF1E828A
:102A90001D821C821B8288CF4B815C81640F751F55
:102AA000AB85BC856A9FC0016B9F900D7A9F900D8E
:102AB000112469817A81680F791F0684F785E02DDA
:102AC000EF80F88409851A859D014F855889898D85
:102AD0009A8D1995D8CF570CC3948ACF6A960FB6A2
:102AE000F894DEBF0FBECDBFDF91CF911F910F9144
:102AF000FF90EF90DF90CF90BF90AF909F908F901E
:102B00007F906F905F904F903F902F9008958F929D
:102B10009F92AF92CF92EF92FF920F931F93CF931A
:102B2000DF93EC01262F898D9A8D009709F050C014
:102B30006A30D1F41D861C868D8948E0849F9001FF
:102B400011248E859F85820F931F9F878E8781E03A
:102B500090E0DF91CF911F910F91FF90EF90CF9078
:102B6000AF909F908F9008956D3089F3CC88AD8899
:102B70008F898823C1F08C859D8536E0C39E800DAA
:102B8000911D1124488559854817590764F44E85CD
:102B90005F851D861C8638E0A39EC0011124840F2A
:102BA000951F9F878E87EA88FB88088919894E853B
:102BB0005F856C857D85CE0185DD2C898C859D8525
:102BC00046E0249F800D911D11249D878C87BFCFE7
:102BD0006A3069F41D861C86FC013696E4912D89C5
:102BE0008E859F85E29F800D911D1124AECF6D30A3
:102BF00009F4ADCFFC0134963491631708F4A7CFE4
:102C00003196E491E61708F4A2CFFC013296859044
:102C10009490462F431B342F47E0349F800C911C27
:102C20001124F401329634913196E4913323A1F1C9
:102C3000EE2391F1CC88F4013596E491AD884F896B
:102C4000442301F10E2E000CFF0BE30FF11DCE9E6D
:102C5000A001CF9E500D11246C857D85460F571F16
:102C600068857985641775076CF44E855F851D86C8
:102C70001C86FC013696E491AE9E400D511D112438
:102C80005F874E87EA88FB88088919894E855F85AA
:102C90006C857D85CE0116DDF4013496E4912C8996
:102CA0008C859D85E29F800D911D11248ECF6F92A2
:102CB0007F928F929F92AF92BF92CF92DF92EF92CC
:102CC000FF920F931F93CF93DF93EC016B015A0197
:102CD00039014801E881F9810284F385E02D1995D5
:102CE000E881F9810288F389E02D87019301A5012C
:102CF000B601CE011995A501480D591D4150510944
:102D0000E881F9810288F389E02D9301B601CE01B3
:102D10001995E881F9810088F189E02D9401A501D8
:102D2000B601CE011995C60CD71CB60161507109C8
:102D3000E881F9810088F189E02D9401A501CE0197
:102D40001995E881F9810688F789E02DCE01DF9198
:102D5000CF911F910F91FF90EF90DF90CF90BF9098
:102D6000AF909F908F907F906F9019942F923F9289
:102D70004F925F926F927F928F929F92AF92BF928B
:102D8000CF92DF92EF92FF920F931F93CF93DF9337
:102D9000CDB7DEB72D970FB6F894DEBF0FBECDBF0F
:102DA0005C011B0158874F833D872C870987FC8274
:102DB000EB82360181E090E06C01C21AD30AC901AE
:102DC0009195819591099C01220F331F3A832983A4
:102DD000C70101969E838D83F12CE12C44244394FA
:102DE000512CDA011196BB87AA872C853D85E21606
:102DF000F3060CF070C08C849D84D7FC0BC0490195
:102E000031E0831A910889819A8102969A83898395
:102E1000C80ED91E9FEFE91AF90AA2E04A0E511C0A
:102E2000C40CD51C8E149F0444F42C853D852815B4
:102E30003905F1F49D868C86D8CF9401220F331F7B
:102E40004F81588548195909D501ED91FC91B985F3
:102E50008D819E81280F391F0088F189E02D830123
:102E6000B101B13009F56E0D7F1DC5011995DDCF9A
:102E70009985913019F5920122503109AB81BC81BD
:102E80002A0F3B1F6C857D85620D731DD501ED9169
:102E9000FC910088F189E02D83014A855B854E19FC
:102EA0005F09C5011995C6CF6E197F09C50119952E
:102EB000AC85BD85A815B90509F4BCCF9201225097
:102EC00031098B819C81280F391FB101AC85BD85EB
:102ED0006A1B7B0BDBCF2D960FB6F894DEBF0FBEBF
:102EE000CDBFDF91CF911F910F91FF90EF90DF90B9
:102EF000CF90BF90AF909F908F907F906F905F909A
:102F00004F903F902F9008952F923F924F925F9253
:102F10006F927F928F929F92AF92BF92CF92DF92E9
:102F2000EF92FF920F931F93CF93DF9300D000D0C7
:102F3000CDB7DEB74C017C836B833A012901580180
:102F40001601201731070CF07AC03A83298337FF26
:102F500004C02F5F3F4F3A83298389819A819595D9
:102F600087959A83898389819A819E838D83E816C8
:102F7000F90614F4FE82ED82D401ED91FC910284F5
:102F8000F385E02DC4011995CD80DE80CC0CDD1CCD
:102F90002B813C818D819E81280F391F3A832983A3
:102FA00092012C193D09D401ED91FC910684F7851D
:102FB000E02D71018501A30169817A81C401199510
:102FC000AC18BD08B1E0AB1AB1082D813E81620E8C
:102FD000731E6B817C81640D751D621B730B6150C8
:102FE00071096101750101E0A301C401BFDE02E0C6
:102FF0002D813E81A30169817A81C401B7DED401AC
:10300000ED91FC910688F789E02DC40126960FB654
:10301000F894DEBF0FBECDBFDF91CF911F910F910E
:10302000FF90EF90DF90CF90BF90AF909F908F90E8
:103030007F906F905F904F903F902F9019941A83DC
:10304000098317FF04C0D8011196BA83A983298187
:103050003A81359527953A83298385CF2F923F92E0
:103060004F925F926F927F928F929F92AF92BF9298
:10307000CF92DF92EF92FF920F931F93CF93DF9344
:1030800000D000D0CDB7DEB79E838D834B013A01CF
:103090006901802F21E030E029014C185D082224CD
:1030A00033242C183D08220C331CB12CA12C01E038
:1030B00010E0982F94709983A82FA270AA83B82F3C
:1030C000B870BB8381708C83AC14BD040CF0A7C0B6
:1030D00057FC08C081E0C81AD10892E0290E311CC3
:1030E000420C531CAFEFAA1ABA0A0E5F1F4F400ED4
:1030F000511EB981BB2311F1AD81BE81ED91FC91CF
:1031000011970484F585E02D9701A601460D571D02
:10311000B4016A0D7B1DCD011995AD81BE81ED9184
:10312000FC9111970484F585E02D9701A3014A0DC8
:103130005B1DB601680D791DCD011995BA81BB23C0
:1031400011F1AD81BE81ED91FC9111970484F5855B
:10315000E02D9701A3014C195D09B4016A0D7B1D97
:10316000CD011995AD81BE81ED91FC91119704843B
:10317000F585E02D9701A3014A195B09B601680D99
:10318000791DCD011995BB81BB2311F1AD81BE81A4
:10319000ED91FC9111970484F585E02D9701A30131
:1031A0004A0D5B1DB4016C197D09CD011995AD81E6
:1031B000BE81ED91FC9111970484F585E02D970176
:1031C000A601460D571DB4016A197B09CD01199559
:1031D000BC81BB2309F478CFAD81BE81ED91FC9118
:1031E00011970484F585E02D9701A3014A195B0925
:1031F000B4016C197D09CD011995AD81BE81ED91A8
:10320000FC9111970484F585E02D9701A3014C19D9
:103210005D09B4016A197B09CD01199555CF269630
:103220000FB6F894DEBF0FBECDBFDF91CF911F91D7
:103230000F91FF90EF90DF90CF90BF90AF909F9055
:103240008F907F906F905F904F903F902F90089558
:103250002F923F924F925F926F927F928F929F92A6
:10326000AF92BF92CF92DF92EF92FF920F931F9394
:10327000CF93DF9300D000D01F921F92CDB7DEB75F
:103280005C017A8369832A014901380120173107DB
:103290000CF0BBC03C832B83C90137FDBBC0AB81A5
:1032A000BC81B595A795BC83AB838B819C819887A6
:1032B0008F83E816F90614F4F886EF82D501ED91B4
:1032C000FC910284F385E02DC50119958F819885C5
:1032D000880F991F9C838B837401E81AF90A29804F
:1032E0003A80AF81B8852A0E3B1ED501ED91FC9145
:1032F0000288F389E02D86019701A201B101C50181
:103300001995C301840D951D9E838D83AC01415099
:103310005109D501ED91FC910288F389E02D9701C7
:10332000B101C50119958B819C81681A790AAF8119
:10333000B8854A0E5B1ED501ED91FC910088F1899C
:10334000E02D9301A20169817A81C50119958981D6
:103350009A81880E991EB40161507109D501ED91D1
:10336000FC910088F189E02D9301A201C501199516
:10337000760101E02F813885A201B101C5016EDE21
:103380008F819885881A990A91E0891A910802E03C
:103390002F813885A201B401C50160DE6D807E8079
:1033A000AF81B8856A1A7B0AB1E06B1A710804E034
:1033B0002F813885A301B401C50150DE08E02F81BB
:1033C0003885A301B101C50149DED501ED91FC911C
:1033D0000688F789E02DC50128960FB6F894DEBF60
:1033E0000FBECDBFDF91CF911F910F91FF90EF9056
:1033F000DF90CF90BF90AF909F908F907F906F9015
:103400005F904F903F902F9019941C830B8317FF70
:1034100046CFC80101969C838B8341CF6F927F92E8
:103420008F929F92AF92BF92CF92DF92EF92FF92D4
:103430000F931F93CF93DF935C01EB016A01490166
:1034400038018701DC01ED91FC916217730719F5D2
:10345000641675062CF0962D872D3A01C92ED82EAC
:103460009601261937092F5F3F4F048CF58DE02D0B
:10347000A301BE01C5011995DF91CF911F910F9155
:10348000FF90EF90DF90CF90BF90AF909F908F9084
:103490007F906F9008954615570591F426173707CA
:1034A00024F0892D4B01C22FD82F9E0128193909EC
:1034B0002F5F3F4F068CF78DE02DA601B401DACFC8
:1034C0000284F385E02D1995D501ED91FC910488D6
:1034D000F589E02D83019401A601BE01C50119956E
:1034E000D501ED91FC910688F789E02DC501DF91AA
:1034F000CF911F910F91FF90EF90DF90CF90BF90F1
:10350000AF909F908F907F906F901994EF92FF9261
:103510000F931F93DC011A960D911C911B9718961F
:103520002D913C911997ED91FC9100A0F1A1E02D16
:103530007B0150E040E070E060E019951F910F9131
:10354000FF90EF9008954F925F926F927F928F92CB
:103550009F92AF92BF92CF92DF92EF92FF920F9322
:103560001F93CF93DF936C012B015A01390148015E
:10357000DC01ED91FC910284F385E02D1995E201C7
:10358000640C751CD601ED91FC91C615D7055CF451
:103590000088F189E02D87019401A501BE01C601D3
:1035A00019952196EFCF0688F789E02DC601DF91A6
:1035B000CF911F910F91FF90EF90DF90CF90BF9030
:1035C000AF909F908F907F906F905F904F901994E5
:1035D0008F929F92AF92BF92CF92DF92EF92FF9223
:1035E0000F931F93CF93DF93EC015B014A016901B5
:1035F000E881F9810284F385E02D199595012C0D60
:103600003D1D21503109E881F9810488F589E02DBB
:1036100078018401A401B501CE011995E881F981F1
:103620000688F789E02DCE01DF91CF911F910F9190
:10363000FF90EF90DF90CF90BF90AF909F908F90D2
:1036400019948F929F92AF92BF92CF92DF92EF9296
:10365000FF920F931F93CF93DF93EC015B014A011D
:1036600069017801E881F9810284F385E02D1995DB
:10367000C80CD91C860101501109E881F981048820
:10368000F589E02D9501A401B501CE011995E881D8
:10369000F9810688F789E02DCE01DF91CF911F9146
:1036A0000F91FF90EF90DF90CF90BF90AF909F90E1
:1036B0008F9019940895EF92FF920F931F93DC015E
:1036C000ED91FC9100A0F1A1E02D19951F910F91B2
:1036D000FF90EF9008950F931F93DC01ED91FC9103
:1036E000068CF78DE02D19951F910F9108950F937A
:1036F0001F93DC01ED91FC91048CF58DE02D199563
:103700001F910F910895DC01ED91FC910084F185EA
:10371000E02D19942F923F924F925F926F927F9279
:103720008F929F92AF92BF92CF92DF92EF92FF92D1
:103730000F931F93CF93DF9300D000D0CDB7DEB7A8
:103740003C016A013E832D83FC82EB825801A41A5E
:10375000B50AB7FE03C0B194A194B1088D809E80D4
:10376000861A970A97FE03C09194819491088A144F
:103770009B045CF0902F812F0D811E819D838E8391
:103780009C2D8D2D6B01692F782F0C151D055CF07C
:103790009D818E817E836D83692F782F902F812F5D
:1037A0008601C92ED82E1601201A310A2B012D812F
:1037B0003E81421A530A57FE03C051944194510866
:1037C000710137FE03C03FEFE31AF30AF594E79463
:1037D0008D819E81861797075CF5A1E0B0E0BA83E2
:1037E000A983C016D1064CF1D301ED91FC9104845C
:1037F000F585E02D2B813C81A8016D817E818A14A5
:103800009B041CF04D815E81B801C3011995E41839
:10381000F508F7FE0AC02D813E8189819A81280F23
:10382000391F3E832D83E20CF31C0F5F1F4FD9CF4E
:103830002FEF3FEF3A832983D4CF26960FB6F89423
:10384000DEBF0FBECDBFDF91CF911F910F91FF90D3
:10385000EF90DF90CF90BF90AF909F908F907F9030
:103860006F905F904F903F902F90089590E080E090
:1038700008958F929F92AF92BF92FF920F931F93E2
:10388000CF93DF93FC01F0808FE28F1508F44AC0DC
:10389000828108E512E0081B110987FD1395000FCE
:1038A000111F000F111F8181C8E8D0E0C81BD1098A
:1038B00087FDD395CC0FDD1FCC0FDD1F4E010D2EE4
:1038C000000CAA08BB089801012E000C440B550BF4
:1038D000281939094A095B09DB010E941E3F24EBC4
:1038E00030E040E050E00E94F83E820E931EA41E9D
:1038F000B51E8C169D062CF0E801801691060CF47E
:10390000E4012297CC0FDD1F2FB7F8948F2D90E0A4
:10391000FC01EE0FFF1FE80FF91FE154F94FD283AE
:10392000C1832FBFDF91CF911F910F91FF90BF9067
:10393000AF909F908F900895AF92BF92CF92DF92F9
:10394000EF92FF920F931F93CF93DF936B017A0156
:10395000EC01C45ADA4F28813CE0389F8001399F3E
:10396000100D1124A0904F07B12C27FF1FC0FB01A1
:103970001182108288818F5F888388819801280F47
:10398000311D87FD3A95F6012A153B051CF4888107
:103990008C30C4F180819181049680349C4908F474
:1039A00073C0F60180819181049670C0888198016E
:1039B000280F311D87FD3A952A153B05DCF68881D5
:1039C000A801480F511D87FD5A95FA01EE0FFF1F00
:1039D000E40FF51FE154F94F808186FFCBCF88813A
:1039E000F801E80FF11D87FDFA95CF01EE0FFF1FDB
:1039F000E80FF91FE154F94F808160E08F730E9456
:103A0000AD07B8CF808191812881A801420F511D57
:103A100027FD5A959A01FA01EE0FFF1FE20FF31FDF
:103A2000E154F94F21813281820F931FF701918375
:103A3000808388819801280F311D87FD3A95F9010F
:103A4000EE0FFF1FE20FF31FE154F94F808186FF55
:103A500022C08881080F111D87FD1A95F801EE0F0D
:103A6000FF1FE00FF11FE154F94F808161E08F7378
:103A7000DF91CF911F910F91FF90EF90DF90CF904A
:103A8000BF90AF900C94AD0780E49CE9F70191835F
:103A900080838FEF8883DF91CF911F910F91FF90EB
:103AA000EF90DF90CF90BF90AF900895982F80ED6A
:103AB000890F873048F08FEB890F893028F081E03B
:103AC000983519F080E0089581E008950F931F93D1
:103AD000CF938C01DC011896CC91189716968D9196
:103AE0009C91DC01ED91FC910190F081E02D199504
:103AF000853209F0C82FF80182819381DC01ED91B4
:103B0000FC910190F081E02D1995853209F0C82FC4
:103B1000F80184819581DC01ED91FC910190F081A7
:103B2000E02D1995853209F0C82F8C2FCF911F9168
:103B30000F910895982F80ED890F873088F08FEBD3
:103B4000890F8A3068F084EB890F823048F08FEA61
:103B5000890F843028F081E0983519F080E00895CD
:103B600081E00895EF92FF920F931F93CF93DF931D
:103B700000D01F921F92CDB7DEB78C01DC01D0962A
:103B80008D919C91DC01ED91FC910480F581E02DFB
:103B900060E570E01995F80180A382A993A9DC0182
:103BA000ED91FC910480F581E02D60E570E01995C0
:103BB000F80181A3E4A8F5A864EB70E0D7011296A0
:103BC0008D919C9156DE64E670E080E090E00E946A
:103BD0002209F70180819181DC01ED91FC91028045
:103BE000F381E02D1995F70180819181DC01ED9140
:103BF000FC910480F581E02D64E170E01995F801F5
:103C000084A3E4A8F5A86AE570E0D70112968D9127
:103C10009C912FDE64E670E080E090E00E94220933
:103C2000F70180819181DC01ED91FC910280F381AB
:103C3000E02D1995F70180819181DC01ED91FC91D6
:103C40000480F581E02D64E170E01995F80183A30B
:103C5000E4A8F5A870E060E0D70112968D919C91E0
:103C600008DE64E670E080E090E00E942209F7013F
:103C700080819181DC01ED91FC910280F381E02D46
:103C80001995F70180819181DC01ED91FC9104800F
:103C9000F581E02D64E170E01995F80182A385E0DB
:103CA000B096DE01119601900D928A95E1F7298177
:103CB0003A814B815C816D8170E080E090E00F90F3
:103CC0000F900F900F900F90DF91CF911F910F9158
:103CD000FF90EF900895EF92FF920F931F93DC01F6
:103CE0001A960D911C911B9718962D913C9119973E
:103CF000ED91FC9100A0F1A1E02D7B0150E040E0AE
:103D000070E060E019951F910F91FF90EF9008957A
:103D10000F931F93CF93DF93EC018B01E881F9811F
:103D20000280F381E02D199581E02A813B81021701
:103D300013070CF080E0DF91CF911F910F91089550
:103D40000F931F93CF93DF93EC018B01E881F981EF
:103D50000280F381E02D199581E02A813B810217D1
:103D600013070CF080E0DF91CF911F910F91089520
:103D7000CF93DF93EC018C810E94E0089B838A83C0
:103D8000DF91CF910895CF92DF92EF92FF920F9340
:103D90001F93CF93DF938C01FC01C481D581EA8509
:103DA000FB8580819C81892B8083EE81FF819081BE
:103DB0008C818095892380838BE090E00197F1F7D7
:103DC000EE81FF8180819C81892B808383E290E05A
:103DD0000197F1F7EE81FF8190818C818095892395
:103DE0008083EA85FB8590818C81809589238083FF
:103DF000E885F98580819D818923C1F090E080E08C
:103E0000BC0190E080E029E330E040E050E00E9417
:103E1000243FF80133832283C901DF91CF911F91A1
:103E20000F91FF90EF90DF90CF9008950E94FD08D2
:103E3000AB01BC018C859D85B0E0A0E08855994E12
:103E4000AF4FBF4F840F951FA61FB71F8E879F8749
:103E5000A88BB98BE885F98580819D81892361F4E0
:103E60000E94FD08CE84DF84E888F988C616D7064C
:103E7000E806F90678F7C2CF0E94FD082C853D853B
:103E8000620F731F811D911D6E877F87888B998BB1
:103E9000E885F98580819D81892361F00E94FD0874
:103EA000CE84DF84E888F988C616D706E806F906C6
:103EB00078F7A4CF0E94FD082C853D85A9014550C7
:103EC00051092E853F85FA01E21BF30BCF01860FC6
:103ED000971F96CFCF92DF92EF92FF920F931F938F
:103EE000CF93C82F6A017B0100915A0510915B05A1
:103EF00087E090E001151105D1F40E948E40FC018D
:103F000090935B0580935A0516821582C083C18207
:103F1000D282E382F4829093640580936305CF910B
:103F20001F910F91FF90EF90DF90CF9008950E9426
:103F30008E40FC01D80116969C938E931597C083F2
:103F4000C182D282E382F4821682158290935B054D
:103F500080935A05E4CF0E948F42FB01019000201C
:103F6000E9F73197AF01461B570BDC01ED91FC914E
:103F70000280F381E02D1994CF93DF93BC0182E29C
:103F800096E0EBDFEC0165E872E082E296E0E5DFC7
:103F90008C0F9D1FDF91CF9108958DE193E0ECDFB1
:103FA00088E892E0E9DF88E992E0E6DF84EA92E0DF
:103FB000E3DF8FEA92E0E0DF8BEB92E0DDDF89EC7C
:103FC00092E0DADF89ED92E0D7DF8DE193E0D4CFA4
:103FD000CF93DF93682F82E296E00E94FE09EC0106
:103FE00065E872E082E296E0B8DF8C0F9D1FDF91FA
:103FF000CF9108950F931F93CF93DF93EC01FB01B3
:104000004481558160817181E881F9810280F38169
:10401000E02D19958C0165E872E0CE019EDF800FDE
:10402000911FDF91CF911F910F910895EF92FF9211
:104030000F931F93CF93DF93EC01F12CE12C08E752
:1040400010E020EF30E044E650E070E060E08CEEFD
:1040500098E00E940E0F8FEF9FEF9093FF088093E0
:10406000FE089093FD088093FC0882E0809300098D
:10407000809301091092F9081092F80884E690E004
:104080009093FB088093FA08BE018CEE98E0DF91D4
:10409000CF911F910F91FF90EF90ACCF61157105FB
:1040A00009F05BCF90E080E00895CF92DF92EF922D
:1040B000FF920F931F93CF93DF93EC0170E060E0CA
:1040C0008CEE98E008DE8FE1C82ED12C94E1E92E29
:1040D000F12C0CE310E028EC30E044E150E064E126
:1040E00070E08CEE98E00E948417CC24CA94DC2CFB
:1040F00028EC30E044E150E064E170E08CEE98E0C0
:10410000A7D880EE9FEF9093FF088093FE089093CE
:10411000FD088093FC0882E08093000980930109E8
:1041200082E390E09093F9088093F80888E290E0A9
:104130009093FB088093FA08BE018CEE98E0DF9123
:10414000CF911F910F91FF90EF90DF90CF90A6CF6E
:10415000CF9385E895E00E94BE091816190694F4DD
:1041600085E895E00E949C09C82F853259F069EED8
:1041700072E082E296E092DF8C2F2ADF8C2FDADC6D
:10418000811101C0C5E28C2FCF910895CF9382E2B7
:1041900096E00E94BE091816190684F482E296E0A1
:1041A0000E949C09C82F63EF72E082E296E076DFFE
:1041B0008C2F0EDF8C2FBEDC811101C0C5E28C2F4D
:1041C000CF9108956F927F928F929F92AF92BF92FC
:1041D000CF92DF92EF92FF920F931F93CF93DF93D3
:1041E000EC01888899886C847D84CE84DF84662382
:1041F00029F09C2D8D2D6401892E982E2E813F81D2
:104200000885198559012017310708F05801B6941F
:10421000A794B694A794B12C4C815D816A817B816F
:104220007501888199810E948417088519852E81DE
:104230003F814C815D816A817B81630188819981A5
:1042400007D8E881F98188859985969587952C818D
:104250003D81820F931F2B8514E0219F80199109C6
:104260001124BE016E5E7F4FDB010D900020E9F747
:10427000AD0141505109461B570B2E813F813695A8
:104280002795AA81BB812A0F3B1FAA8513E0A19F16
:10429000D0011124A49F8001A59F100DB49F100D83
:1042A0001124201B310B3587248797878687E88167
:1042B000F981828A938A808A918AE881F9818B8543
:1042C0009A85911101C091E0948B811101C081E028
:1042D000858B88819981DF91CF911F910F91FF90FC
:1042E000EF90DF90CF90BF90AF909F908F907F9096
:1042F0006F90D4CE0F931F93CF93DF93EC018C017B
:104300000A5E1F4F4C815D816A817B81C8010E94DA
:1043100030139AA99BAB8AABC8010E94281388234B
:1043200029F061E0C8014EDF8DE48D8BDF91CF91E4
:104330001F910F91089580930A08882381F0873098
:1043400008F048C0E82FF0E0EE0FFF1FE35FFD4FDD
:1043500080819181AADE60E082E198E03AC08DEF31
:1043600092E0A3DE8FEF9FEF9093FF088093FE080B
:104370009093FD088093FC0881E08093000980936E
:10438000010986E990E09093F9088093F80883E4A6
:1043900090E09093FB088093FA086AE073E08CEE5B
:1043A00098E07CDE60E080E398E00CDF60E08EE483
:1043B00098E008DF60E08CE698E004DF60E08AE8DF
:1043C00098E000DF60E088EA98E0FCDE60E086ECE0
:1043D00098E0F8CE08952F923F924F925F926F929D
:1043E0007F928F929F92AF92BF92CF92DF92EF9285
:1043F000FF920F931F93CF93DF93CDB7DEB72D9727
:104400000FB6F894DEBF0FBECDBF8C017C0188EEE5
:10441000E80EF11CF701A581B0E0FD01EA5DF24F65
:104420006490F7018281682F70E0FB01EA5DF24F32
:104430004490F701448150E0FA01EA5DF24FC490E4
:10444000F701238130E0F901EA5DF24F2490FD018C
:10445000E459F24F94919F83FB01E459F24F9491F8
:104460009987FA01E459F24FD490F901E459F24FD7
:1044700094919A8760E00E94DA0760E0F7018381F7
:104480000E94DA07512C440C551CC201845F924FE4
:104490002C01FC01A591B4918C91998590959B87F5
:1044A00089238C93312C220C331CF101E45FF24FF1
:1044B0001F01A591B4919C918A85809589238C9345
:1044C00061E0F70185810E94DA0761E0F7018481EC
:1044D0000E94DA07712C660C771CC301845F924F2F
:1044E0003C01FC01A591B4918C919F81892B8C9307
:1044F000EC2DF0E0EE0FFF1FE45FF24FA591B491B9
:10450000EC91D094DE22DC92FE0131966F014E01D7
:10451000F7E08F0E911C5601CC86DD86F701828173
:104520000E94E008F501819391935F01E815F90578
:10453000A9F7C6010E940D078B819C812FEF33E004
:104540004901881A990A60E0F70185810E94DA071B
:1045500060E0F70184810E94DA07F301A591B4912C
:104560008C91FF81F095FF838F238C9361E0F7019D
:1045700082810E94DA07F201A591B491EC91F9854C
:10458000EF2BEC9361E0F70183810E94DA07F701DA
:1045900084810E94E008F601819391936F01EA15EE
:1045A000FB05A9F78C859D850E940D07CB80DC80DB
:1045B00061E0F70185810E94DA07F301A591B491CA
:1045C000EC91FF81EF23EC93F101A591B491EC9173
:1045D0008A85E82BEC93F201A591B4918C919B858F
:1045E00089238C9360E0F70182810E94DA07F7014A
:1045F00084810E94E0085C01F70182810E94E0084A
:10460000F701E680F780E114F10409F47BC1BC01F5
:10461000990F880B990B0E94093E2B013C01B501B3
:10462000BB0C880B990B0E94093E9B01AC01C30196
:10463000B2010E94BA3F20E030E040E85FE30E9410
:10464000553F2B013C01B401092C000C880B990B40
:104650000E94093EA30192010E94443E2B013C01AD
:10466000B70190E080E00E94073EA30192010E9402
:10467000443E20E030E040E85AE30E94443E0E947D
:1046800022405B0161E087E30E94DA0761E088E392
:104690000E94DA0761E087E30E94AD0761E088E3EA
:1046A0000E94AD0799ECA91AB108EFE1AE16E3E05C
:1046B000BE0698F5F801E850FF4FA081B181940142
:1046C000990C440B550B2F5A3109410951090E948D
:1046D0001E3F2AED32E040E050E00E94F83EF80133
:1046E000338322832FEF33E02C193D09032E000C76
:1046F000440B550B245A334041095109E650FF4FF2
:10470000A081B1810E941E3F24E23DEF4FEF5FEF99
:104710000E94F83EF8013583248364E670E080E06F
:1047200090E00E94220985E2F801858BFFE1AF1637
:10473000F3E0BF0608F0CBC0F8018681882309F4B6
:104740009AC0C801C49698878F8384809580A28080
:10475000B380A401B5010E943013D801A05BBF4F04
:104760009C91F801EF5AFF4F90838C93680192E57A
:10477000C90ED11CA401B501C6010E943013F60177
:10478000948D958F848F7801F0E7EF0EF11CA401D2
:10479000B501C7010E943013F701948D958F848F66
:1047A0003801FEE86F0E711CA401B501C3010E941F
:1047B0003013F301948D958F848F2801FCEA4F0EFE
:1047C000511CA401B501C2010E943013F201948D65
:1047D000958F848F1801FAEC2F0E311CA401B501BE
:1047E000C1010E943013F101948D958F848F8F81C8
:1047F00098850E942813882339F061E08F8198857D
:10480000E1DC8CE4F801858BC6010E942813882323
:1048100031F061E0C601D6DC83E5F801858BC70184
:104820000E942813882331F061E0C701CBDC82E5C8
:10483000F801858BC3010E942813882331F061E0C1
:10484000C301C0DC84E5F801858BC2010E942813F6
:10485000882331F061E0C201B5DC81E5F801858B88
:10486000C1010E942813882331F061E0C101AADC54
:104870008AE4F801858BF8018085882311F0C8014E
:1048800039DDF8018185882311F0C80133DDF80195
:104890008781882311F0C8012DDDF80182858823E6
:1048A00011F0C80127DDF8018385882311F0C801C4
:1048B00021DDF8018485882311F0C8011BDD64E146
:1048C00073E082E296E0EADBF801858981DBF8019A
:1048D00085892D960FB6F894DEBF0FBECDBFDF9150
:1048E000CF911F910F91FF90EF90DF90CF90BF90ED
:1048F000AF909F908F907F906F905F904F903F9080
:104900002F900895A81AB90AC50181509C4F5C01E7
:10491000B9CE0F931F93CF93DF938C01EB01FC0172
:10492000808191810097E1F068817981611571053D
:10493000A9F0428153812C813D814217530770F0C9
:104940000E949C428C819D81F801958384831D8205
:104950001C82DF91CF911F910F9108950E942A41EF
:1049600088819981F801918380838A819B819383D7
:1049700082838C819D8195838483198218821B8216
:104980001A82E5CFCF93DF93EC018881998100975C
:1049900011F00E942A41198218821D821C821B82FA
:1049A0001A82DF91CF910895FC0180819181009757
:1049B00011F00C942A4108950F931F93CF93DF9326
:1049C000EC0188819981009759F02A813B81261753
:1049D000370730F081E0DF91CF911F910F9108955B
:1049E0008B016F5F7F4F0E94B341009759F099830D
:1049F00088831B830A832C813D81232B59F7FC017B
:104A00001082E8CF80E0E7CFEF92FF920F931F93E1
:104A1000CF93DF936115710541F480E0DF91CF9171
:104A20001F910F91FF90EF90089541155105A9F046
:104A30007B01EC010C811D81040F151FB801BCDF47
:104A4000882359F3288139818C819D81B701820F98
:104A5000931F0E949C421D830C8381E0DFCFEF9265
:104A6000FF920F931F93CF93DF93CDB7DEB72D97B0
:104A70000FB6F894DEBF0FBECDBF7C01CB01BA01EB
:104A80002AE08E010F5F1F4FA8010E94D63DF8015A
:104A900001900020E9F73197AF01401B510BB8019D
:104AA000C701B2DF811102C0C7016CDFC7012D96BB
:104AB0000FB6F894DEBF0FBECDBFDF91CF911F912F
:104AC0000F91FF90EF900895CF93DF93EC01611564
:104AD000710531F4CE0156DFCE01DF91CF910895FB
:104AE000FB0101900020E9F73197AF01461B570BFE
:104AF0008BDF882379F3F0CFEF92FF920F931F9310
:104B0000CF93DF93EC017B018A01BA0155DF81115C
:104B10000AC0CE0137DFCE01DF91CF911F910F91F7
:104B2000FF90EF9008951D830C83B70188819981D0
:104B30000E949C42F0CFFB0101900020E9F73197E1
:104B4000AF01461B570BD8CFCF93DF93EC01FB018E
:104B50008617970741F0608171816115710539F001
:104B600044815581C9DFCE01DF91CF9108950ADFDD
:104B7000FACFFC01118210821382128215821482F4
:104B8000E3CFFC01118210821382128215821482FB
:104B9000FB0101900020E9F73197AF01461B570B4D
:104BA000ABCF0F931F93CF93DF93CDB7DEB7629751
:104BB0000FB6F894DEBF0FBECDBF67E872E0CE013E
:104BC0000D96DFDF6FE173E0CE010196DADFBE0103
:104BD0006F5F7F4FCE010D969CDECE010196E4DE25
:104BE000E0918405F0E0EE0FFF1FE35FFD4F0081D1
:104BF0001181BE01635F7F4FCE010796BADFB80116
:104C0000CE01079661DFBC01CE010196B2DFBE0185
:104C10006F5F7F4FCE010D967CDECE010196C4DE24
:104C2000CE010796C1DEBE01635F7F4FCE010796BE
:104C3000A0DF6DE874E0CE01079646DFBC01CE012F
:104C4000019697DFBE016F5F7F4FCE010D9661DE4B
:104C5000CE010196A9DECE010796A6DEBE01635FF6
:104C60007F4F82E296E0C6D9CE010D969DDE629618
:104C70000FB6F894DEBF0FBECDBFDF91CF911F916D
:104C80000F910895CF92DF92EF92FF920F931F93AF
:104C9000CF93DF9300D000D01F921F92CDB7DEB725
:104CA0008C017B0167E872E06CDF69E273E0C801A8
:104CB00042DFF701D080B801CE0101965ADFDF82D2
:104CC000188641E050E0BE01695F7F4FCE0101963A
:104CD0009BDE811103C0CE01019654DEBE016F5FE1
:104CE0007F4FC80131DFCE0101965EDEB801CE01F3
:104CF00001963FDF60E373E0CE010196E5DEBC0183
:104D0000C80122DFCE0101964FDEF701C180D280BB
:104D1000E380F480B801CE0101962BDFB701A60134
:104D2000CE0101969CDEBC01C8010EDFCE010196CA
:104D30003BDEC80128960FB6F894DEBF0FBECDBF8C
:104D4000DF91CF911F910F91FF90EF90DF90CF9067
:104D50000895CF92DF92EF92FF920F931F93CF931C
:104D6000DF9300D000D01F921F92CDB7DEB78C0129
:104D70007B0167E872E005DF6AE373E0C801DBDE10
:104D8000F701D580B801CE010196F3DEDF821886E7
:104D900041E050E0BE01695F7F4FCE01019634DEF5
:104DA000811103C0CE010196EDDDBE016F5F7F4F23
:104DB000C801CADECE010196F7DDB801CE01019629
:104DC000D8DE66E872E0CE0101967EDEBC01C80145
:104DD000BBDECE010196E8DDB801CE010196C9DE49
:104DE000F7014489558960897189CE0101960CDEED
:104DF000811103C0CE010196C5DDBE016F5F7F4FFB
:104E0000C801A2DECE010196CFDDB801CE01019628
:104E1000B0DE62E473E0CE01019656DEBC01C8014B
:104E200093DECE010196C0DDF701C6A0D7A0E0A4B5
:104E3000F1A4B801CE0101969CDEB701A601CE0116
:104E400001960DDEBC01C8017FDECE010196ACDD0E
:104E5000C80128960FB6F894DEBF0FBECDBFDF9114
:104E6000CF911F910F91FF90EF90DF90CF90089519
:104E7000EF92FF920F931F93CF93DF93CDB7DEB7DF
:104E80002E970FB6F894DEBF0FBECDBF8C01F62E65
:104E900080ED860F873008F060C067E872E0CE01D1
:104EA00007966FDE1A8219821C821B821E821D8267
:104EB000FD861E86BE01635F7F4FCE0101963BDEFD
:104EC000BE016F5F7F4FCE01079623DDCE010196B5
:104ED0006BDD8F81988560E0009711F00E949B3D0B
:104EE000D80115966C932FEF6203C001112466E080
:104EF00070E00E947340D8016D937C9324E6269F56
:104F0000C001279F900D11246AE070E00E945F406D
:104F1000F801738362836481C801AADFD801159602
:104F20008C911597811116C089E4E82E1696EC92A3
:104F30006EE473E0C8014096FEDDF80184A595A5F6
:104F40000E94940AD8019E968D919C910E94940A89
:104F5000F801E482CE01079627DD8FEB8F0D8930B3
:104F600070F59801205F3F4FEEEBEF0DE830A0F5B4
:104F70000E2E000CFF0B8827EF53F84D8F4F0C942B
:104F800086403E28A22893281D2808287D285D28D1
:104F9000C927A9E4FA2ED8011696FC926EE473E0B4
:104FA000C901C9DDF80184A595A50E94940AD8011C
:104FB0009E968D919C910E94940AF801F4822E96FF
:104FC0000FB6F894DEBF0FBECDBFDF91CF911F911A
:104FD0000F91FF90EF900895F1E4FF2ED8011696FF
:104FE000FC9267E573E0C901A6DDF80184A595A5EB
:104FF0002081DC0113962C9306A4F7A5E02D2383D2
:105000000E94B70AF80186A597A50E94B70A51C069
:105010006CE573E0C9018FDDE6E4FE2EF801F6824F
:1050200084A595A52081DC0113962C9306A4F7A5F1
:10503000E02DD80112962C91E2CF75E4F72EF801FD
:10504000F68267E673E0C90176DDD8019C968D9102
:105050009C919D9712962C911297FC0123839E960A
:10506000ED91FC919F972C9123830E94B70AD80160
:105070009E968D919C910E94B70A9FCF62E4F62E76
:10508000D8011696FC9261E773E0C90154DDF8017E
:1050900084A595A52081DC0113962C9306A4F7A581
:1050A000E02D23830E94A50AF80186A597A50E94FA
:1050B000A50AD8011496FC9282CF58E4F52EF80187
:1050C000F68268E773E0C90136DDD8019C968D91C0
:1050D0009C919D972C91FC0123839E96ED91FC91D0
:1050E0009F9712962C9123830E94A50AD8019E9621
:1050F0008D919C910E94A50A60CF47E4F42ED801BF
:105100001696FC9265E873E0C90115DDF80184A5E7
:1051100095A52281DC0113962C9306A4F7A5E02D1A
:10512000D8012C91BECF94E4F92EF801F68261E902
:1051300073E0C90100DDD8019C968D919C910E947D
:10514000B70AB2CF83E4F82EF801F6826DE973E076
:10515000C901F1DCD8019C968D919C910E94A50A11
:1051600051CFEF92FF920F931F93CF93DF9300D015
:1051700000D01F92CDB7DEB77C0109831A832B8341
:105180003C834D835E836F8387E0FE013196D701B8
:10519000959601900D928A95E1F7F70187819085A8
:1051A000A185B285892B8A2B8B2B69F4878588236F
:1051B00051F065A1C7015CDE0E945309F7016783C6
:1051C0007087818792870E945309F70107811085B4
:1051D00021853285601B710B820B930B06A117A1F1
:1051E00020A531A5061717072807390740F487853A
:1051F000882329F017861782108611861286279633
:105200000FB6F894DEBF0FBECDBFDF91CF911F91D7
:105210000F91FF90EF9008951F920F920FB60F928B
:1052200011242F933F938F939F93AF93BF938091BC
:105230007B0590917C05A0917D05B0917E05309114
:105240007A0523E0230F2D3758F50196A11DB11DD6
:1052500020937A0580937B0590937C05A0937D0530
:10526000B0937E0580917F0590918005A091810586
:10527000B09182050196A11DB11D80937F05909389
:105280008005A0938105B0938205BF91AF919F9156
:105290008F913F912F910F900FBE0F901F901895F7
:1052A00026E8230F0296A11DB11DD2CF1F920F92A7
:1052B0000FB60F9211240BB60F922F933F934F937B
:1052C0005F936F937F938F939F93AF93BF93EF936E
:1052D000FF9385E895E00E94DC09FF91EF91BF9173
:1052E000AF919F918F917F916F915F914F913F917E
:1052F0002F910F900BBE0F900FBE0F901F9018951F
:105300001F920F920FB60F9211240BB60F922F938C
:105310008F939F93EF93FF93E0919505F0919605FE
:105320008081E0919B05F0919C0582FD1DC09081DC
:1053300080919E058F5F8F7320919F05821741F0AA
:10534000E0919E05F0E0EB57FA4F958F80939E0514
:10535000FF91EF919F918F912F910F900BBE0F9026
:105360000FBE0F901F9018958081F2CF1F920F9261
:105370000FB60F9211240BB60F922F933F934F93BA
:105380005F936F937F938F939F93AF93BF93EF93AD
:10539000FF9382E296E00E94DC09FF91EF91BF91BA
:1053A000AF919F918F917F916F915F914F913F91BD
:1053B0002F910F900BBE0F900FBE0F901F9018955E
:1053C0001F920F920FB60F9211240BB60F922F93CC
:1053D0008F939F93EF93FF93E0913206F091330602
:1053E0008081E0913806F091390682FD1DC09081E0
:1053F00080913B068F5F8F7320913C06821741F0AE
:10540000E0913B06F0E0EE5DF94F958F80933B060F
:10541000FF91EF919F918F912F910F900BBE0F9065
:105420000FBE0F901F9018958081F2CF1F920F92A0
:105430000FB60F9211240BB60F922F933F934F93F9
:105440005F936F937F938F939F93AF93BF93EF93EC
:10545000FF9348E251E064E271E090E080E00E9456
:105460009C1CFF91EF91BF91AF919F918F917F9184
:105470006F915F914F913F912F910F900BBE0F90C5
:105480000FBE0F901F9018951F920F920FB60F929C
:1054900011240BB60F922F933F934F935F936F930B
:1054A0007F938F939F93AF93BF93EF93FF9348EABC
:1054B00050E064EA70E083E090E00E949C1CFF9161
:1054C000EF91BF91AF919F918F917F916F915F917C
:1054D0004F913F912F910F900BBE0F900FBE0F90E9
:1054E0001F9018951F920F920FB60F9211240BB6B2
:1054F0000F922F933F934F935F936F937F938F936D
:105500009F93AF93BF93EF93FF9348E950E064E913
:1055100070E082E090E00E949C1CFF91EF91BF91AF
:10552000AF919F918F917F916F915F914F913F913B
:105530002F910F900BBE0F900FBE0F901F901895DC
:105540001F920F920FB60F9211240BB60F922F934A
:105550003F934F935F936F937F938F939F93AF93FB
:10556000BF93EF93FF9348E850E064E870E081E078
:1055700090E00E949C1CFF91EF91BF91AF919F9191
:105580008F917F916F915F914F913F912F910F90EC
:105590000BBE0F900FBE0F901F9018951F920F9289
:1055A0000FB60F9211240BB60F922F933F934F9388
:1055B0005F936F937F938F939F93AF93BF93EF937B
:1055C000FF93F0E0E0E01995FF91EF91BF91AF916B
:1055D0009F918F917F916F915F914F913F912F910B
:1055E0000F900BBE0F900FBE0F901F9018950F934A
:1055F0001F93CF93DF9300D000D0CDB7DEB71092CA
:1056000088051092870548EE53E060E070E0409313
:10561000890550938A0560938B0570938C058FE103
:1056200092E090938605809385052DEC30E03093D1
:105630009205209391052CEC30E030939405209353
:10564000930528EC30E0309396052093950529ECDE
:1056500030E030939805209397052AEC30E03093A2
:105660009A05209399052EEC30E030939C05209309
:105670009B0510929E0510929F051092A005109216
:10568000A1051092250610922406409326065093F9
:10569000270660932806709329069093230680932B
:1056A000220685EC90E090932F0680932E0684ECE2
:1056B00090E0909331068093300680EC90E09093D8
:1056C00033068093320681EC90E090933506809308
:1056D000340682EC90E0909337068093360686EC91
:1056E00090E0909339068093380610923B06109212
:1056F0003C0610923D0610923E0668EA73E0CE0129
:1057000001963FDA89E692E09093FD078093FC07CB
:105710001092090867E872E08BE098E032DA1092A4
:10572000130810921208109231081092300810924B
:105730004F0810924E0810926D0810926C0810924B
:105740008B0810928A081092A9081092A80810924B
:10575000C7081092C60887E38093E60888E3809321
:10576000E80887E08093E70886E08093E9088CE208
:1057700091E09093EB088093EA088AE090E09093A0
:10578000E5088093E4081092EF081092EE0820EFED
:1057900030E03093F1082093F00880E491E090939A
:1057A000F3088093F2083093F5082093F40890935F
:1057B000F7088093F608109202091092F9081092E7
:1057C000F8081092FB081092FA0881E08093010912
:1057D000809300092FEF3FEF3093FF082093FE08DE
:1057E0003093FD082093FC0880930309109204096C
:1057F00010920609109205098DE392E09093ED084E
:105800008093EC08BE016F5F7F4F8BE098E09CD9DE
:10581000CE010196C9D880914F07803308F0A0C10E
:1058200091E0980F90934F078093F90790E0FC0167
:10583000EE0FFF1FE80FF91FE154F94F88EB9BE0D3
:1058400092838183EBE9FDE0E491E093EB07ECE9DF
:10585000FDE0E491E093EC0785E59DE0FC012491F7
:10586000E22FF0E0EE0FFF1FE45FF24F259134913D
:105870003093EE072093ED07E6E5FDE0E491F0E0DC
:10588000EE0FFF1FEE50F34F259134913093F00748
:105890002093EF07FC018491E82FF0E0EE0FFF1F4B
:1058A000E852F34F859194919093F2078093F1071A
:1058B00081EC9CE29093F4078093F3078CE2809351
:1058C000DD0782E38093DE0783E38093DF0704E64E
:1058D0000093E0071092E60711E01093E50710929D
:1058E000E1071092E2071092E3071092E40761E0EB
:1058F0008CE20E94DA0761E08091DE070E94DA07FD
:1059000061E08091DF070E94DA078DE28093D30780
:1059100084E38093D40785E38093D5070093D6076B
:105920001092DC071093DB071092D7071092D8076C
:105930001092D9071092DA0761E08DE20E94DA072F
:1059400061E08091D4070E94DA0761E08091D50779
:105950000E94DA078FE792E09093CF078093CE07FB
:105960002EE32093D2079093CA078093C9078FE351
:105970008093CD0785E792E09093C4078093C30797
:1059800087EE97E09093C8078093C70783EC97E072
:105990009093C0078093BF0789EF97E09093C20769
:1059A0008093C10767E872E089E997E0EAD867E881
:1059B00072E08BE697E0E5D889E897E09093880756
:1059C000809387078FEF90E090938A0780938907F1
:1059D00089E190E090938C0780938B07E091B50765
:1059E000F091B6078FEF8383E091B707F091B80786
:1059F000838386E080938E0710939807E091BD071C
:105A0000F091BE0702811381D8018C91803308F098
:105A100054C061E08EE20E94DA07F8018081282FED
:105A200030E0F901EE0FFF1FE20FF31FE154F94FD1
:105A30009081907C9E629083D80111961C92119760
:105A400012961C922CE0622F0E945340829FB0015C
:105A5000112430E020E0AB01420F531FFA01EE0F9A
:105A6000FF1FE40FF51FE154F94F908196FD17C019
:105A70002F5F3F4F2C30310571F7813009F074C032
:105A80001092800082E08093810010928500109235
:105A90008400B19A80916F00826080936F00D8017A
:105AA000EC918E2F90E0FC01EE0FFF1FE80FF91F25
:105AB000E154F94F80818064808369E48091870795
:105AC00090918807D5D964EB73E0CE01019659D83F
:105AD00087E392E09093630780936207BE016F5F54
